S01400004C6963687465726B657474652E7372656328
S11300000C9434000C943E000C943E000C943E007E
S11300100C943E000C943E000C943E000C943E0064
S11300200C943E000C943E000C943E000C943E0054
S11300300C943E000C943E000C943E000C943E0044
S11300400C943E000C943E000C943E000C943E0034
S11300500C943E000C943E000C943E000C943E0024
S11300600C943E000C943E0011241FBECFEFD8E048
S1130070DEBFCDBF0E9440000C9417010C94000019
S11300808FEF84B915B8A1E0E3E072E066E054E0D4
S11300904CE038E028E190E180E3F0E2A5B9BFEF5D
S11300A0C4E3DCE0B150C040D040E1F700C0000040
S11300B0E5B9BFEFC7EED3E0B150C040D040E1F79F
S11300C000C0000075B9BFEFCBEDD5E0B150C04022
S11300D0D040E1F700C0000065B9BFEFC7EED3E040
S11300E0B150C040D040E1F700C0000055B9BFEFA7
S11300F0CBEDD5E0B150C040D040E1F700C00000E6
S113010045B9BFEFC7EED3E0B150C040D040E1F7EE
S113011000C0000035B9BFEFCBEDD5E0B150C04011
S1130120D040E1F700C0000025B9BFEFC7EED3E02F
S1130130B150C040D040E1F700C0000095B9BFEF16
S1130140CBEDD5E0B150C040D040E1F700C0000095
S113015085B9BFEFC7EED3E0B150C040D040E1F75E
S113016000C00000F5B9BFEFC4E3DCE0B150C0400B
S1130170D040E1F700C0000085B9BFEFC7EED3E07F
S1130180B150C040D040E1F700C0000095B9BFEFC6
S1130190CBEDD5E0B150C040D040E1F700C0000045
S11301A025B9BFEFC7EED3E0B150C040D040E1F76E
S11301B000C0000035B9BFEFCBEDD5E0B150C04071
S11301C0D040E1F700C0000045B9BFEFC7EED3E06F
S11301D0B150C040D040E1F700C0000055B9BFEFB6
S11301E0CBEDD5E0B150C040D040E1F700C00000F5
S11301F065B9BFEFC7EED3E0B150C040D040E1F7DE
S113020000C0000075B9BFEFCBEDD5E0B150C040E0
S1130210D040E1F700C00000E5B9BFEFC7EED3E07E
S1130220B150C040D040E1F700C0000037CFF8948F
S1050230FFCFFA
S9030000FC
