:100000000C9434000C943E000C943E000C943E0082
:100010000C943E000C943E000C943E000C943E0068
:100020000C943E000C943E000C943E000C943E0058
:100030000C943E000C943E000C943E000C943E0048
:100040000C943E000C943E000C943E000C943E0038
:100050000C943E000C943E000C943E000C943E0028
:100060000C943E000C943E0011241FBECFEFD8E04C
:10007000DEBFCDBF0E9440000C9470000C940000C5
:100080008FEF84B915B832E026E091E084E035B90D
:100090004FEF57EA61E6415050406040E1F700C041
:1000A000000025B94FEF53ED60E3415050406040F0
:1000B000E1F700C0000095B94FEF57EA61E6415003
:1000C00050406040E1F700C0000085B94FEF53EDAC
:1000D00060E3415050406040E1F700C00000D7CFDE
:0400E000F894FFCFC2
:00000001FF
